{
  "contractName": "DigitalAssets",
  "abi": [
    {
      "inputs": [],
      "stateMutability": "nonpayable",
      "type": "constructor"
    },
    {
      "anonymous": false,
      "inputs": [
        {
          "indexed": true,
          "internalType": "address",
          "name": "owner",
          "type": "address"
        },
        {
          "indexed": false,
          "internalType": "uint256",
          "name": "itemId",
          "type": "uint256"
        },
        {
          "indexed": false,
          "internalType": "string",
          "name": "name",
          "type": "string"
        },
        {
          "indexed": false,
          "internalType": "uint256",
          "name": "price",
          "type": "uint256"
        }
      ],
      "name": "ItemCreated",
      "type": "event"
    },
    {
      "anonymous": false,
      "inputs": [
        {
          "indexed": true,
          "internalType": "address",
          "name": "buyer",
          "type": "address"
        },
        {
          "indexed": false,
          "internalType": "uint256",
          "name": "itemId",
          "type": "uint256"
        },
        {
          "indexed": false,
          "internalType": "string",
          "name": "name",
          "type": "string"
        }
      ],
      "name": "ItemPurchased",
      "type": "event"
    },
    {
      "inputs": [
        {
          "internalType": "uint256",
          "name": "",
          "type": "uint256"
        },
        {
          "internalType": "uint256",
          "name": "",
          "type": "uint256"
        }
      ],
      "name": "assetOwners",
      "outputs": [
        {
          "internalType": "address payable",
          "name": "ownerAddress",
          "type": "address"
        }
      ],
      "stateMutability": "view",
      "type": "function",
      "constant": true
    },
    {
      "inputs": [
        {
          "internalType": "uint256",
          "name": "",
          "type": "uint256"
        }
      ],
      "name": "digitalAssets",
      "outputs": [
        {
          "internalType": "uint256",
          "name": "id",
          "type": "uint256"
        },
        {
          "internalType": "string",
          "name": "name",
          "type": "string"
        },
        {
          "internalType": "uint256",
          "name": "price",
          "type": "uint256"
        },
        {
          "internalType": "uint256",
          "name": "purchased_time",
          "type": "uint256"
        }
      ],
      "stateMutability": "view",
      "type": "function",
      "constant": true
    },
    {
      "inputs": [],
      "name": "owner",
      "outputs": [
        {
          "internalType": "address",
          "name": "",
          "type": "address"
        }
      ],
      "stateMutability": "view",
      "type": "function",
      "constant": true
    },
    {
      "stateMutability": "payable",
      "type": "receive",
      "payable": true
    },
    {
      "inputs": [
        {
          "internalType": "string",
          "name": "_name",
          "type": "string"
        },
        {
          "internalType": "uint256",
          "name": "_priceInWei",
          "type": "uint256"
        }
      ],
      "name": "setDigitalAsset",
      "outputs": [],
      "stateMutability": "nonpayable",
      "type": "function"
    },
    {
      "inputs": [
        {
          "internalType": "uint256",
          "name": "_itemId",
          "type": "uint256"
        }
      ],
      "name": "getItemCurrentOwner",
      "outputs": [
        {
          "components": [
            {
              "internalType": "address payable",
              "name": "ownerAddress",
              "type": "address"
            }
          ],
          "internalType": "struct DigitalAssets.Owner",
          "name": "",
          "type": "tuple"
        }
      ],
      "stateMutability": "view",
      "type": "function",
      "constant": true
    },
    {
      "inputs": [
        {
          "internalType": "uint256",
          "name": "_itemId",
          "type": "uint256"
        }
      ],
      "name": "getItemAllOwner",
      "outputs": [
        {
          "internalType": "address[]",
          "name": "",
          "type": "address[]"
        }
      ],
      "stateMutability": "view",
      "type": "function",
      "constant": true
    },
    {
      "inputs": [],
      "name": "getBalance",
      "outputs": [
        {
          "internalType": "uint256",
          "name": "",
          "type": "uint256"
        }
      ],
      "stateMutability": "view",
      "type": "function",
      "constant": true
    },
    {
      "inputs": [
        {
          "internalType": "uint256",
          "name": "_itemId",
          "type": "uint256"
        }
      ],
      "name": "purchaseAsset",
      "outputs": [],
      "stateMutability": "payable",
      "type": "function",
      "payable": true
    },
    {
      "inputs": [
        {
          "internalType": "uint256",
          "name": "_amount",
          "type": "uint256"
        }
      ],
      "name": "withdrawFunds",
      "outputs": [],
      "stateMutability": "nonpayable",
      "type": "function"
    }
  ],
  "bytecode": "0x60806040526000805534801561001457600080fd5b50600180546001600160a01b03191633179055610c9d806100366000396000f3fe60806040526004361061008a5760003560e01c80638da5cb5b116100595780638da5cb5b14610125578063a457e1c01461015d578063b674b53414610170578063bd1b0221146101a8578063d2130855146101d857600080fd5b806312065fe014610096578063155dd5ee146100b657806341c4c3b5146100d8578063439957e6146100f857600080fd5b3661009157005b600080fd5b3480156100a257600080fd5b506040514781526020015b60405180910390f35b3480156100c257600080fd5b506100d66100d136600461092c565b6101f8565b005b3480156100e457600080fd5b506100d66100f336600461095b565b6102e7565b34801561010457600080fd5b5061011861011336600461092c565b6103e9565b6040516100ad9190610a10565b34801561013157600080fd5b50600154610145906001600160a01b031681565b6040516001600160a01b0390911681526020016100ad565b6100d661016b36600461092c565b6104c9565b34801561017c57600080fd5b5061019061018b36600461092c565b610734565b60405190516001600160a01b031681526020016100ad565b3480156101b457600080fd5b506101c86101c336600461092c565b6107aa565b6040516100ad9493929190610aaa565b3480156101e457600080fd5b506101456101f3366004610ad6565b61085b565b6001546001600160a01b031633146102625760405162461bcd60e51b815260206004820152602260248201527f4f6e6c79204f776e65722043616e2043616c6c20546869732046756e6374696f6044820152616e2160f01b60648201526084015b60405180910390fd5b478111156102a95760405162461bcd60e51b8152602060048201526014602482015273496e73756666696369656e742062616c616e636560601b6044820152606401610259565b6001546040516001600160a01b039091169082156108fc029083906000818181858888f193505050501580156102e3573d6000803e3d6000fd5b5050565b6000805490806102f683610b0e565b9091555050604080516080810182526000805480835260208084018781528486018790526060850184905291835260028152939091208251815590518051929391926103489260018501920190610893565b5060408281015160028301556060909201516003918201556000805481526020918252828120835180840185523380825282546001810184559284529383209051910180546001600160a01b0319166001600160a01b0390921691909117905554915190917fd5b8b5924742c0b6a79cf5e676900f77adb58c323e5d8ee95b836a401e2e8fbc916103dd919086908690610b27565b60405180910390a25050565b6000818152600360205260408120546060918167ffffffffffffffff81111561041457610414610945565b60405190808252806020026020018201604052801561043d578160200160208202803683370190505b50905060005b828110156104c157600085815260036020526040902080548290811061046b5761046b610b50565b60009182526020909120015482516001600160a01b039091169083908390811061049757610497610b50565b6001600160a01b0390921660209283029190910190910152806104b981610b0e565b915050610443565b509392505050565b60005481111580156104db5750600081115b6105195760405162461bcd60e51b815260206004820152600f60248201526e125b9d985b1a59081a5d195b481251608a1b6044820152606401610259565b6000818152600260208190526040909120015434101561056e5760405162461bcd60e51b815260206004820152601060248201526f4e6f7420456e6f75676820436f696e2160801b6044820152606401610259565b600061057982610734565b51600083815260026020819052604080832090910154905192935090916001600160a01b03841691908381818185875af1925050503d80600081146105da576040519150601f19603f3d011682016040523d82523d6000602084013e6105df565b606091505b50509050806106265760405162461bcd60e51b815260206004820152601360248201527222b93937b91029b2b73234b7339022ba3432b960691b6044820152606401610259565b6000838152600260208190526040909120015434111561068d576000838152600260208190526040909120015433906108fc906106639034610b66565b6040518115909202916000818181858888f1935050505015801561068b573d6000803e3d6000fd5b505b60008381526002602081815260408084204260038083019190915582518085018452338082528a88529185528387208054600180820183559189528689209251920180546001600160a01b0319166001600160a01b039093169290921790915595899052939092525191927f3851cc2c7466ed3adbe97d3763e0bf81511e17ae75184adb0646294d9e2698aa926107279288920190610bb7565b60405180910390a2505050565b60408051602081019091526000815260008281526003602052604081205461075e90600190610b66565b60008481526003602052604090208054919250908290811061078257610782610b50565b600091825260209182902060408051938401905201546001600160a01b031681529392505050565b600260205260009081526040902080546001820180549192916107cc90610b7d565b80601f01602080910402602001604051908101604052809291908181526020018280546107f890610b7d565b80156108455780601f1061081a57610100808354040283529160200191610845565b820191906000526020600020905b81548152906001019060200180831161082857829003601f168201915b5050505050908060020154908060030154905084565b6003602052816000526040600020818154811061087757600080fd5b6000918252602090912001546001600160a01b03169150829050565b82805461089f90610b7d565b90600052602060002090601f0160209004810192826108c15760008555610907565b82601f106108da57805160ff1916838001178555610907565b82800160010185558215610907579182015b828111156109075782518255916020019190600101906108ec565b50610913929150610917565b5090565b5b808211156109135760008155600101610918565b60006020828403121561093e57600080fd5b5035919050565b634e487b7160e01b600052604160045260246000fd5b6000806040838503121561096e57600080fd5b823567ffffffffffffffff8082111561098657600080fd5b818501915085601f83011261099a57600080fd5b8135818111156109ac576109ac610945565b604051601f8201601f19908116603f011681019083821181831017156109d4576109d4610945565b816040528281528860208487010111156109ed57600080fd5b826020860160208301376000602093820184015298969091013596505050505050565b6020808252825182820181905260009190848201906040850190845b81811015610a515783516001600160a01b031683529284019291840191600101610a2c565b50909695505050505050565b6000815180845260005b81811015610a8357602081850181015186830182015201610a67565b81811115610a95576000602083870101525b50601f01601f19169290920160200192915050565b848152608060208201526000610ac36080830186610a5d565b6040830194909452506060015292915050565b60008060408385031215610ae957600080fd5b50508035926020909101359150565b634e487b7160e01b600052601160045260246000fd5b600060018201610b2057610b20610af8565b5060010190565b838152606060208201526000610b406060830185610a5d565b9050826040830152949350505050565b634e487b7160e01b600052603260045260246000fd5b600082821015610b7857610b78610af8565b500390565b600181811c90821680610b9157607f821691505b602082108103610bb157634e487b7160e01b600052602260045260246000fd5b50919050565b828152600060206040818401526000845481600182811c915080831680610bdf57607f831692505b8583108103610bfc57634e487b7160e01b85526022600452602485fd5b6040880183905260608801818015610c1b5760018114610c2c57610c57565b60ff19861682528782019650610c57565b60008b81526020902060005b86811015610c5157815484820152908501908901610c38565b83019750505b50949a995050505050505050505056fea2646970667358221220509490ddb998e26149f7a027c7b7d124c810b87164a5aaa0236dd04fcebb38d864736f6c634300080d0033",
  "immutableReferences": {},
  "source": "// SPDX-License-Identifier: MIT\r\npragma solidity >=0.4.22 <0.9.0;\r\n\r\n//  Manage and Sell Digital Assets\r\ncontract DigitalAssets {\r\n    //  Events\r\n    event ItemCreated(\r\n        address indexed owner,\r\n        uint256 itemId,\r\n        string name,\r\n        uint256 price\r\n    );\r\n    event ItemPurchased(address indexed buyer, uint256 itemId, string name);\r\n\r\n    //  Manage Asset Count which also acts as Asset ID\r\n    uint assetCount = 0;\r\n\r\n    //  Contract Owner\r\n    address public owner;\r\n\r\n    //  Constructor sets contract owner\r\n    constructor() {\r\n        owner = msg.sender;\r\n    }\r\n\r\n    //  Struct for Owner Type\r\n    struct Owner {\r\n        address payable ownerAddress;\r\n    }\r\n\r\n    //  Struct for Item Type\r\n    struct Item {\r\n        uint256 id;\r\n        string name;\r\n        uint256 price;\r\n        uint256 purchased_time;\r\n    }\r\n\r\n    //  Create a mapping to store Digital Assets\r\n    mapping(uint => Item) public digitalAssets;\r\n    mapping(uint => Owner[]) public assetOwners;\r\n\r\n    //  Modifier onlyOwner can call certain function\r\n    modifier onlyOwner() {\r\n        require(msg.sender == owner, \"Only Owner Can Call This Function!\");\r\n        _;\r\n    }\r\n\r\n    //  Set Item into mappings\r\n    function setDigitalAsset(string memory _name, uint256 _priceInWei) public {\r\n        assetCount++;\r\n        digitalAssets[assetCount] = Item(assetCount, _name, _priceInWei, 0);\r\n        assetOwners[assetCount].push(Owner(payable(msg.sender)));\r\n        emit ItemCreated(msg.sender, assetCount, _name, _priceInWei);\r\n    }\r\n\r\n    //  Return the current owner of a specific Item\r\n    function getItemCurrentOwner(\r\n        uint _itemId\r\n    ) public view returns (Owner memory) {\r\n        uint currentOwnerIndex = assetOwners[_itemId].length - 1;\r\n        return assetOwners[_itemId][currentOwnerIndex];\r\n    }\r\n\r\n    //  Return list of owners of a specific Item\r\n    function getItemAllOwner(\r\n        uint _itemId\r\n    ) public view returns (address[] memory) {\r\n        uint ownersCount = assetOwners[_itemId].length;\r\n        address[] memory owners = new address[](ownersCount);\r\n        for (uint i = 0; i < ownersCount; i++) {\r\n            owners[i] = assetOwners[_itemId][i].ownerAddress;\r\n        }\r\n        return owners;\r\n    }\r\n\r\n    //  Get Contract Balance\r\n    function getBalance() public view returns (uint) {\r\n        return address(this).balance;\r\n    }\r\n\r\n    //  Purchase an Item\r\n    function purchaseAsset(uint _itemId) public payable {\r\n        require(_itemId <= assetCount && _itemId > 0, \"Invalid item ID\");\r\n        require(msg.value >= digitalAssets[_itemId].price, \"Not Enough Coin!\");\r\n        address payable currentOwner = payable(\r\n            getItemCurrentOwner(_itemId).ownerAddress\r\n        );\r\n        (bool sent, ) = currentOwner.call{value: digitalAssets[_itemId].price}(\r\n            \"\"\r\n        ); //  Transfer the required funds to the current owner\r\n        require(sent, \"Error Sending Ether\");\r\n        if (msg.value > digitalAssets[_itemId].price) {\r\n            payable(msg.sender).transfer(\r\n                msg.value - digitalAssets[_itemId].price\r\n            ); //  Refund the excess funds\r\n        }\r\n        digitalAssets[_itemId].purchased_time = block.timestamp; //  Store purchase time as epoch time\r\n        addNewOwner(msg.sender, _itemId);\r\n        emit ItemPurchased(msg.sender, _itemId, digitalAssets[_itemId].name);\r\n    }\r\n\r\n    //  Add new Owner to specific Item when purchase is completed\r\n    function addNewOwner(address _addr, uint _itemId) private {\r\n        Owner memory newOwner = Owner(payable(_addr));\r\n        assetOwners[_itemId].push(newOwner);\r\n    }\r\n\r\n    //  Withdraw funds from the contract\r\n    function withdrawFunds(uint _amount) public onlyOwner {\r\n        require(_amount <= address(this).balance, \"Insufficient balance\");\r\n        payable(owner).transfer(_amount);\r\n    }\r\n\r\n    receive() external payable {}\r\n}\r\n",
  "sourcePath": "C:\\xampp\\htdocs\\cos349\\contracts\\DigitalAssets.sol",
  "compiler": {
    "name": "solc",
    "version": "0.8.13+commit.abaa5c0e.Emscripten.clang"
  },
  "schemaVersion": "3.4.16",
  "updatedAt": "2024-03-15T14:48:47.716Z",
  "networkType": "ethereum",
  "devdoc": {
    "kind": "dev",
    "methods": {},
    "version": 1
  },
  "userdoc": {
    "kind": "user",
    "methods": {},
    "version": 1
  }
}