{
  "contractName": "DigitalAssets",
  "abi": [
    {
      "inputs": [],
      "stateMutability": "nonpayable",
      "type": "constructor"
    },
    {
      "anonymous": false,
      "inputs": [
        {
          "indexed": true,
          "internalType": "address",
          "name": "owner",
          "type": "address"
        },
        {
          "indexed": false,
          "internalType": "uint256",
          "name": "itemId",
          "type": "uint256"
        },
        {
          "indexed": false,
          "internalType": "string",
          "name": "name",
          "type": "string"
        },
        {
          "indexed": false,
          "internalType": "uint256",
          "name": "price",
          "type": "uint256"
        }
      ],
      "name": "ItemCreated",
      "type": "event"
    },
    {
      "anonymous": false,
      "inputs": [
        {
          "indexed": true,
          "internalType": "address",
          "name": "buyer",
          "type": "address"
        },
        {
          "indexed": false,
          "internalType": "uint256",
          "name": "itemId",
          "type": "uint256"
        },
        {
          "indexed": false,
          "internalType": "string",
          "name": "name",
          "type": "string"
        }
      ],
      "name": "ItemPurchased",
      "type": "event"
    },
    {
      "inputs": [
        {
          "internalType": "uint256",
          "name": "",
          "type": "uint256"
        },
        {
          "internalType": "uint256",
          "name": "",
          "type": "uint256"
        }
      ],
      "name": "assetOwners",
      "outputs": [
        {
          "internalType": "address payable",
          "name": "ownerAddress",
          "type": "address"
        }
      ],
      "stateMutability": "view",
      "type": "function",
      "constant": true
    },
    {
      "inputs": [
        {
          "internalType": "uint256",
          "name": "",
          "type": "uint256"
        }
      ],
      "name": "digitalAssets",
      "outputs": [
        {
          "internalType": "uint256",
          "name": "id",
          "type": "uint256"
        },
        {
          "internalType": "string",
          "name": "name",
          "type": "string"
        },
        {
          "internalType": "uint256",
          "name": "price",
          "type": "uint256"
        },
        {
          "internalType": "uint256",
          "name": "purchased_time",
          "type": "uint256"
        }
      ],
      "stateMutability": "view",
      "type": "function",
      "constant": true
    },
    {
      "inputs": [],
      "name": "owner",
      "outputs": [
        {
          "internalType": "address",
          "name": "",
          "type": "address"
        }
      ],
      "stateMutability": "view",
      "type": "function",
      "constant": true
    },
    {
      "stateMutability": "payable",
      "type": "receive",
      "payable": true
    },
    {
      "inputs": [
        {
          "internalType": "string",
          "name": "_name",
          "type": "string"
        },
        {
          "internalType": "uint256",
          "name": "_priceInWei",
          "type": "uint256"
        }
      ],
      "name": "setDigitalAsset",
      "outputs": [],
      "stateMutability": "nonpayable",
      "type": "function"
    },
    {
      "inputs": [
        {
          "internalType": "uint256",
          "name": "_itemId",
          "type": "uint256"
        }
      ],
      "name": "getItemCurrentOwner",
      "outputs": [
        {
          "components": [
            {
              "internalType": "address payable",
              "name": "ownerAddress",
              "type": "address"
            }
          ],
          "internalType": "struct DigitalAssets.Owner",
          "name": "",
          "type": "tuple"
        }
      ],
      "stateMutability": "view",
      "type": "function",
      "constant": true
    },
    {
      "inputs": [
        {
          "internalType": "uint256",
          "name": "_itemId",
          "type": "uint256"
        }
      ],
      "name": "getItemAllOwner",
      "outputs": [
        {
          "internalType": "address[]",
          "name": "",
          "type": "address[]"
        }
      ],
      "stateMutability": "view",
      "type": "function",
      "constant": true
    },
    {
      "inputs": [],
      "name": "getBalance",
      "outputs": [
        {
          "internalType": "uint256",
          "name": "",
          "type": "uint256"
        }
      ],
      "stateMutability": "view",
      "type": "function",
      "constant": true
    },
    {
      "inputs": [
        {
          "internalType": "uint256",
          "name": "_itemId",
          "type": "uint256"
        }
      ],
      "name": "purchaseAsset",
      "outputs": [],
      "stateMutability": "payable",
      "type": "function",
      "payable": true
    },
    {
      "inputs": [
        {
          "internalType": "uint256",
          "name": "_amount",
          "type": "uint256"
        }
      ],
      "name": "withdrawFunds",
      "outputs": [],
      "stateMutability": "nonpayable",
      "type": "function"
    }
  ],
  "bytecode": "0x60806040525f8055348015610012575f80fd5b50600180546001600160a01b03191633179055610c9a806100325f395ff3fe608060405260043610610087575f3560e01c80638da5cb5b116100575780638da5cb5b1461011d578063a457e1c014610154578063b674b53414610167578063bd1b02211461019e578063d2130855146101cd575f80fd5b806312065fe014610092578063155dd5ee146100b157806341c4c3b5146100d2578063439957e6146100f1575f80fd5b3661008e57005b5f80fd5b34801561009d575f80fd5b506040514781526020015b60405180910390f35b3480156100bc575f80fd5b506100d06100cb366004610860565b6101ec565b005b3480156100dd575f80fd5b506100d06100ec36600461088b565b6102d8565b3480156100fc575f80fd5b5061011061010b366004610860565b6103d2565b6040516100a8919061093a565b348015610128575f80fd5b5060015461013c906001600160a01b031681565b6040516001600160a01b0390911681526020016100a8565b6100d0610162366004610860565b6104ae565b348015610172575f80fd5b50610186610181366004610860565b61070c565b60405190516001600160a01b031681526020016100a8565b3480156101a9575f80fd5b506101bd6101b8366004610860565b61077e565b6040516100a894939291906109c9565b3480156101d8575f80fd5b5061013c6101e73660046109f4565b61082c565b6001546001600160a01b031633146102565760405162461bcd60e51b815260206004820152602260248201527f4f6e6c79204f776e65722043616e2043616c6c20546869732046756e6374696f6044820152616e2160f01b60648201526084015b60405180910390fd5b4781111561029d5760405162461bcd60e51b8152602060048201526014602482015273496e73756666696369656e742062616c616e636560601b604482015260640161024d565b6001546040516001600160a01b039091169082156108fc029083905f818181858888f193505050501580156102d4573d5f803e3d5ffd5b5050565b5f805490806102e683610a28565b9091555050604080516080810182525f80548083526020808401878152848601879052606085018490529183526002905292902081518155915190919060018201906103329082610ac6565b5060408281015160028301556060909201516003918201555f805481526020918252828120835180840185523380825282546001810184559284529383209051910180546001600160a01b0319166001600160a01b0390921691909117905554915190917fd5b8b5924742c0b6a79cf5e676900f77adb58c323e5d8ee95b836a401e2e8fbc916103c6919086908690610b82565b60405180910390a25050565b5f818152600360205260408120546060918167ffffffffffffffff8111156103fc576103fc610877565b604051908082528060200260200182016040528015610425578160200160208202803683370190505b5090505f5b828110156104a6575f85815260036020526040902080548290811061045157610451610baa565b5f9182526020909120015482516001600160a01b039091169083908390811061047c5761047c610baa565b6001600160a01b03909216602092830291909101909101528061049e81610a28565b91505061042a565b509392505050565b5f5481111580156104be57505f81115b6104fc5760405162461bcd60e51b815260206004820152600f60248201526e125b9d985b1a59081a5d195b481251608a1b604482015260640161024d565b5f81815260026020819052604090912001543410156105505760405162461bcd60e51b815260206004820152601060248201526f4e6f7420456e6f75676820436f696e2160801b604482015260640161024d565b5f61055a8261070c565b515f83815260026020819052604080832090910154905192935090916001600160a01b03841691908381818185875af1925050503d805f81146105b8576040519150601f19603f3d011682016040523d82523d5f602084013e6105bd565b606091505b50509050806106045760405162461bcd60e51b815260206004820152601360248201527222b93937b91029b2b73234b7339022ba3432b960691b604482015260640161024d565b5f8381526002602081905260409091200154341115610666575f838152600260208190526040909120015433906108fc9061063f9034610bbe565b6040518115909202915f818181858888f19350505050158015610664573d5f803e3d5ffd5b505b5f8381526002602081815260408084204260038083019190915582518085018452338082528a88529185528387208054600180820183559189528689209251920180546001600160a01b0319166001600160a01b039093169290921790915595899052939092525191927f3851cc2c7466ed3adbe97d3763e0bf81511e17ae75184adb0646294d9e2698aa926106ff9288920190610bd7565b60405180910390a2505050565b60408051602081019091525f81525f8281526003602052604081205461073490600190610bbe565b5f8481526003602052604090208054919250908290811061075757610757610baa565b5f91825260209182902060408051938401905201546001600160a01b031681529392505050565b60026020525f90815260409020805460018201805491929161079f90610a40565b80601f01602080910402602001604051908101604052809291908181526020018280546107cb90610a40565b80156108165780601f106107ed57610100808354040283529160200191610816565b820191905f5260205f20905b8154815290600101906020018083116107f957829003601f168201915b5050505050908060020154908060030154905084565b6003602052815f5260405f208181548110610845575f80fd5b5f918252602090912001546001600160a01b03169150829050565b5f60208284031215610870575f80fd5b5035919050565b634e487b7160e01b5f52604160045260245ffd5b5f806040838503121561089c575f80fd5b823567ffffffffffffffff808211156108b3575f80fd5b818501915085601f8301126108c6575f80fd5b8135818111156108d8576108d8610877565b604051601f8201601f19908116603f0116810190838211818310171561090057610900610877565b81604052828152886020848701011115610918575f80fd5b826020860160208301375f602093820184015298969091013596505050505050565b602080825282518282018190525f9190848201906040850190845b8181101561097a5783516001600160a01b031683529284019291840191600101610955565b50909695505050505050565b5f81518084525f5b818110156109aa5760208185018101518683018201520161098e565b505f602082860101526020601f19601f83011685010191505092915050565b848152608060208201525f6109e16080830186610986565b6040830194909452506060015292915050565b5f8060408385031215610a05575f80fd5b50508035926020909101359150565b634e487b7160e01b5f52601160045260245ffd5b5f60018201610a3957610a39610a14565b5060010190565b600181811c90821680610a5457607f821691505b602082108103610a7257634e487b7160e01b5f52602260045260245ffd5b50919050565b601f821115610ac1575f81815260208120601f850160051c81016020861015610a9e5750805b601f850160051c820191505b81811015610abd57828155600101610aaa565b5050505b505050565b815167ffffffffffffffff811115610ae057610ae0610877565b610af481610aee8454610a40565b84610a78565b602080601f831160018114610b27575f8415610b105750858301515b5f19600386901b1c1916600185901b178555610abd565b5f85815260208120601f198616915b82811015610b5557888601518255948401946001909101908401610b36565b5085821015610b7257878501515f19600388901b60f8161c191681555b5050505050600190811b01905550565b838152606060208201525f610b9a6060830185610986565b9050826040830152949350505050565b634e487b7160e01b5f52603260045260245ffd5b81810381811115610bd157610bd1610a14565b92915050565b8281525f60206040818401525f8454610bef81610a40565b806040870152606060018084165f8114610c105760018114610c2a57610c55565b60ff1985168984015283151560051b890183019550610c55565b895f52865f205f5b85811015610c4d5781548b8201860152908301908801610c32565b8a0184019650505b5093999850505050505050505056fea2646970667358221220952bc1e426e03c22e533e14f8060728e46159a3f8ad42a0a939baee176d0224664736f6c63430008150033",
  "immutableReferences": {},
  "source": "// SPDX-License-Identifier: MIT\npragma solidity >=0.4.22 <0.9.0;\n\n//  Manage and Sell Digital Assets\ncontract DigitalAssets {\n    //  Events\n    event ItemCreated(\n        address indexed owner,\n        uint256 itemId,\n        string name,\n        uint256 price\n    );\n    event ItemPurchased(address indexed buyer, uint256 itemId, string name);\n\n    //  Manage Asset Count which also acts as Asset ID\n    uint assetCount = 0;\n\n    //  Contract Owner\n    address public owner;\n\n    //  Constructor sets contract owner\n    constructor() {\n        owner = msg.sender;\n    }\n\n    //  Struct for Owner Type\n    struct Owner {\n        address payable ownerAddress;\n    }\n\n    //  Struct for Item Type\n    struct Item {\n        uint256 id;\n        string name;\n        uint256 price;\n        uint256 purchased_time;\n    }\n\n    //  Create a mapping to store Digital Assets\n    mapping(uint => Item) public digitalAssets;\n    mapping(uint => Owner[]) public assetOwners;\n\n    //  Modifier onlyOwner can call certain function\n    modifier onlyOwner() {\n        require(msg.sender == owner, \"Only Owner Can Call This Function!\");\n        _;\n    }\n\n    //  Set Item into mappings\n    function setDigitalAsset(string memory _name, uint256 _priceInWei) public {\n        assetCount++;\n        digitalAssets[assetCount] = Item(assetCount, _name, _priceInWei, 0);\n        assetOwners[assetCount].push(Owner(payable(msg.sender)));\n        emit ItemCreated(msg.sender, assetCount, _name, _priceInWei);\n    }\n\n    //  Return the current owner of a specific Item\n    function getItemCurrentOwner(\n        uint _itemId\n    ) public view returns (Owner memory) {\n        uint currentOwnerIndex = assetOwners[_itemId].length - 1;\n        return assetOwners[_itemId][currentOwnerIndex];\n    }\n\n    //  Return list of owners of a specific Item\n    function getItemAllOwner(\n        uint _itemId\n    ) public view returns (address[] memory) {\n        uint ownersCount = assetOwners[_itemId].length;\n        address[] memory owners = new address[](ownersCount);\n        for (uint i = 0; i < ownersCount; i++) {\n            owners[i] = assetOwners[_itemId][i].ownerAddress;\n        }\n        return owners;\n    }\n\n    //  Get Contract Balance\n    function getBalance() public view returns (uint) {\n        return address(this).balance;\n    }\n\n    //  Purchase an Item\n    function purchaseAsset(uint _itemId) public payable {\n        require(_itemId <= assetCount && _itemId > 0, \"Invalid item ID\");\n        require(msg.value >= digitalAssets[_itemId].price, \"Not Enough Coin!\");\n        address payable currentOwner = payable(\n            getItemCurrentOwner(_itemId).ownerAddress\n        );\n        (bool sent, ) = currentOwner.call{value: digitalAssets[_itemId].price}(\n            \"\"\n        ); //  Transfer the required funds to the current owner\n        require(sent, \"Error Sending Ether\");\n        if (msg.value > digitalAssets[_itemId].price) {\n            payable(msg.sender).transfer(\n                msg.value - digitalAssets[_itemId].price\n            ); //  Refund the excess funds\n        }\n        digitalAssets[_itemId].purchased_time = block.timestamp; //  Store purchase time as epoch time\n        addNewOwner(msg.sender, _itemId);\n        emit ItemPurchased(msg.sender, _itemId, digitalAssets[_itemId].name);\n    }\n\n    //  Add new Owner to specific Item when purchase is completed\n    function addNewOwner(address _addr, uint _itemId) private {\n        Owner memory newOwner = Owner(payable(_addr));\n        assetOwners[_itemId].push(newOwner);\n    }\n\n    //  Withdraw funds from the contract\n    function withdrawFunds(uint _amount) public onlyOwner {\n        require(_amount <= address(this).balance, \"Insufficient balance\");\n        payable(owner).transfer(_amount);\n    }\n\n    receive() external payable {}\n}\n",
  "sourcePath": "C:\\Users\\Tan\\Desktop\\Uni\\cos30049\\Asian\\contracts\\DigitalAssets.sol",
  "compiler": {
    "name": "solc",
    "version": "0.8.21+commit.d9974bed.Emscripten.clang"
  },
  "schemaVersion": "3.4.16",
  "updatedAt": "2024-03-14T14:57:35.235Z",
  "networkType": "ethereum",
  "devdoc": {
    "kind": "dev",
    "methods": {},
    "version": 1
  },
  "userdoc": {
    "kind": "user",
    "methods": {},
    "version": 1
  }
}